:100016006A2000FF00003F065B4F666D7D077F6F1D
:10002600777C395E7971000103070F1F3F7FFF0060
:10003600FF0102040810204080F00F00FF00FFFFC0
:100046007EBDDBE7FF151513150F10151513150EDD
:100056000F15150A0C0F10130B0B0C0F0E0F0000CB
:10006600000000000000000000000000000000008A
:1000760000000000000000151519191A1A191818A1
:1000860017171616151919181817171619191818F3
:100096001717160000000000000000000000000016
:1000A600000000000000000000181C201C18201C86
:1000B600181C201C18200000000000000000000092
:1000C600000000000000000000000000000000002A
:1000D60000000000000000000000001206181818BA
:1000E60030120618181830120618181818181206A2
:1000F6001818183000000000000000000000000082
:1001060000000000000000000000000000141414AD
:100116001414140A14141414140A141414141414AD
:100126000A1414141414140A00000000000000003D
:100136000000000000000000000000000000003089
:1001460010401010101040202020208000000000D9
:100156000000000000000000000000000000000099
:100166000000000000000000000000000000000089
:010176000088
:10036C00D3EF9400EE940040147D787C00ED1D706A
:0D037C00011CED4C70F7EF1F70E61E80E3D2
:010389002251
:0E041F00E50B150BAE0A7002150A4E70F322A3
:10038A0090001DE493F580E509C394094003E4F560
:0E039A0009E50990002C93F5A0050902041F47
:0D042D0090001EE493F58063A0FF02041F01
:1003A80090001FE493F580E509C394084003E4F541
:0E03B80009E50990003793F5A0050902041F1E
:1003C600900020E493F580E509C394064003E4F524
:0E03D60009E50990003F93F5A0050902041FF8
:1003E400900021E493F580E509C394064003E4F505
:0E03F40009E50990004593F5A0050902041FD4
:10034900E50C24FE60101460101460101460102471
:1003590004700F02038A02042D0203A80203C612C5
:0303690003E42288
:10040200758911758CEEE4F58AD2A9D28CD2A8C274
:0D04120088D2AAC28AD2AF750C010203493C
:08017700AB07300203C20222B3
:10017F00E4F50EF50FAF0FEB75F032A424E1F58225
:10018F00E43400F583E5822FF582E43583F583E4CB
:10019F0093701FEB75F032A4244BF582E43400F515
:1001AF0083E5822FF582E43583F583E493700302B0
:1001BF00026420B003D2012220B103D20022E4F561
:1001CF0010F511EB75F032A424E1F582E43400F55B
:1001DF0083E582250FF582E43583F583E49375F08B
:1001EF0014A4FFC3E5119FE51095F050533002039F
:1001FF00C2022220B003D2012220B103D20022B2C8
:10020F0095E4F512F513EB75F032A4244BF582E467
:10021F003400F583E582250FF582E43583F583E419
:10022F0093FFC3E5139FE5129400500A0513E513DE
:10023F0070D4051280D00511E511708705108083E9
:10024F007F0A7E0012036C050FE50F600302018425
:05025F00050E02018400
:010264002277
:10026500750C01750D02E4F508F509F50AF50B1293
:100275000402AF0812017730010FE50D6009E50DA5
:10028500D394004002150DC2013000E6E50D64026D
:0F0295006009E50DC394025002050DC20080D32D
:030003000202E016
:1002E000C0E0C0D075D000C004C005C006C0077F04
:1002F000F47E0112036C20B211050CE50CB4060368
:10030000750C017F0A7E0012036CD007D006D00561
:07031000D004D0D0D0E03290
:03000B000202A44A
:1002A400C0E0C083C082C0D075D000C006750A000B
:1002B400750B00E50D90001693F58CE50D90001973
:1002C40093F58AE50DB40206750A03750BE812036B
:0C02D40049D006D0D0D082D083D0E032D8
:03001300020317CE
:10031700C0E0C0D075D000C004C005C006C0077FCC
:10032700F47E0112036C20B30CD2020508E508B471
:100337000303750800D007D006D005D004D0D0D06D
:02034700E032A2
:0300000002043ABD
:0C043A00787FE4F6D8FD75812002026591
:00000001FF
